:060000000A128A11122809
:10000800FE00030EF3000408F4000A08F50083124A
:1000180003137F08F6000A128A1119280A128A1196
:10002800152883010A128A11432886148B100F3071
:1000380095001215A330F1005530F000F00B22287E
:10004800F10B22288312031312110430F2002C3012
:10005800F100AD30F000F00B2F28F10B2F28F20B38
:100068002F283628760883120313FF0075088A00A4
:1000780074088400730E8300FE0E7E0E09000A12B7
:100088008A1167200A128A11831203138610073017
:1000980095001215A330A1005530A000A00B5228DE
:1000A800A10B52288312031312110430A2002C3022
:1000B800A100AD30A000A00B5F28A10B5F28A20B08
:1000C8005F28662848283030831603138F000330D2
:1000D8008312031392009B308316031392003C3063
:1000E80083120313970001308316031386008701D8
:1000F8008312031306118B170B170B16831603179E
:06010800880189010800D6
:04400E00D5E0FFFFFB
:00000001FF
